:100000000C9449020C9466020C9466020C946602ED
:100010000C9466020C9466020C9466020C946602C0
:100020000C9466020C9466020C9466020C946602B0
:100030000C9466020C9466020C9466020C946602A0
:100040000C9466020C9466020C947B100C9466026D
:100050000C9466020C9466020C9466020C94660280
:100060000C9466020C9466024F0F140F520F6E0F21
:10007000140F140F140F140F140F140F140F8A0FF2
:10008000140F140FAA0FCA0F140FE10F140F011051
:10009000000000000000000000005F000000000001
:1000A000000007000700000000147F147F14000008
:1000B00000242A7F2A120000002313086462000033
:1000C00000364955225000000000050300000000E2
:1000D000001C2241000000000041221C0000000022
:1000E00000082A1C2A0800000008083E0808000032
:1000F00000A06000000000000008080808080000D8
:1001000000606000000000000020100804020000F1
:10011000003E5149453E00000000427F4000000083
:100120000062514949460000002241494936000019
:10013000001814127F1000000027454545390000C3
:10014000003C4A49493000000001710905030000E4
:10015000003649494936000000064949291E000079
:1001600000003636000000000000AC6C000000000B
:10017000000814224100000000141414141400009C
:10018000004122140800000000020151090600008D
:1001900000324979413E0000007E0909097E0000D5
:1001A000007F494949360000003E4141412200009C
:1001B000007F4141221C0000007F49494941000065
:1001C000007F090909010000003E41415172000011
:1001D000007F0808087F000000417F410000000008
:1001E000002040413F010000007F08142241000030
:1001F000007F404040400000007F020C027F000072
:10020000007F0408107F0000003E4141413E000095
:10021000007F090909060000003E4151215E0000EF
:10022000007F09192946000000264949493200008B
:100230000001017F01010000003F4040403F0000FD
:10024000001F2040201F0000003F4038403F0000BA
:100250000063140814630000000304780403000022
:100260000061514945430000007F4141000000000A
:1002700000020408102000000041417F000000003F
:1002800000040201020400000080808080800000E1
:1002900000010204000000000020545454780000C3
:1002A000007F4844443800000038444428000000DF
:1002B00000384444487F000000385454541800006B
:1002C00000087E09020000000018A4A4A47C00001D
:1002D000007F08040478000000007D00000000009A
:1002E0000080847D00000000007F10284400000092
:1002F00000417F4000000000007C041804780000EA
:10030000007C08047C0000000038444438000000F1
:1003100000FC24241800000000182424FC00000025
:1003200000007C0804000000004854542400000031
:1003300000047F4400000000003C40407C000000BE
:10034000001C2040201C0000003C4030403C0000CD
:100350000044281028440000001CA0A07C000000DD
:10036000004464544C440000000836410000000082
:1003700000007F000000000000413608000000007F
:100380000002010102010000000205050200000058
:100390006E616E00696E660000407A10F35A00A02C
:1003A000724E18090010A5D4E80000E8764817003E
:1003B00000E40B54020000CA9A3B000000E1F5057E
:1003C000000080969800000040420F000000A086C8
:1003D00001000000102700000000E80300000000FA
:1003E0006400000000000A0000000000010000009E
:1003F00000002C76D888DC674F0823DFC1DFAE59B8
:10040000E1B1B796E5E3E453C63AE651997696E84A
:10041000E6C28426EB898C9B62ED407C6FFCEFBCCE
:100420009C9F40F2BAA56FA5F490055A2AF75C93F9
:100430006B6CF9676DC11BFCE0E40D47FEF520E62F
:10044000B500D0ED902E0300943577050080841E12
:10045000080000204E0A000000C80C333333330F6D
:10046000986E12831141EF8D2114893BE65516CF0A
:10047000FEE6DB18D1844B381BF77C1D901DA4BB16
:10048000E424203284725E228100C9F124ECA1E5CB
:100490003D2711241FBECFEFD8E0DEBFCDBF11E056
:1004A000A0E0B1E0E6EAF4E302C005900D92A433C7
:1004B000B107D9F722E0A4E3B1E001C01D92AB3B44
:1004C000B207E1F70E94E00E0C94511A0C94000060
:1004D0002A982B982D9A2C9A2C982BB123702BB9F3
:1004E00025B12C7F25B92BB12BB925B125B92C9A73
:1004F0002C982BB123702BB925B12C7F25B94BB18A
:1005000099279C01220F331F220F331F242B2BB955
:1005100025B1082E892F000C881F990B000C881F0D
:10052000991F822B85B92C9A2A9A089592E050E05F
:1005300046E921C02A982B9A2D9A2C988BB183706A
:100540008BB985B18C7F85B98BB18BB985B185B9F4
:100550002C9A2C988BB183708BB985B18C7F85B91F
:100560008BB18BB985B185B92C9A2A9A2150310962
:1005700009F7915019F0252F342FDCCF0895229AD6
:10058000259A249A239A8AB18C6F8AB984B18360A0
:1005900084B98BB183708BB985B18C7F85B92FEF0E
:1005A00081EE94E0215080409040E1F700C00000CF
:1005B00081E090E00E9468022A982B9A2D9A2C984C
:1005C0008BB183708BB985B18C7F85B95A9A85B10F
:1005D00085B92C9A2C988BB183708BB985B18C7F9F
:1005E00085B98BB18BB985B185B92C9A2A9A82E0ED
:1005F00090E00E9468022A982B9A2D9A2C988BB131
:1006000083708BB985B18C7F85B98BB18C618BB9C7
:1006100085B185B92C9A2C988BB183708BB985B133
:100620008C7F85B98BB18BB985B185B92C9A2A9A03
:1006300083E090E00E9468022A982B9A2D9A2C98C9
:100640008BB183708BB985B18C7F85B95E9A85B18A
:1006500085B92C9A2C988BB183708BB985B18C7F1E
:1006600085B98BB1806C8BB985B185B92C9A2A9AE2
:1006700084E090E00E9468022A982B9A2D9A2C9888
:100680008BB183708BB985B18C7F85B98BB18BB9F8
:1006900085B185B92C9A2C988BB183708BB985B1B3
:1006A0008C7F85B98BB18BB985B185B92C9A2A9A83
:1006B00088E090E00E9468022A982B9A2D9A2C9844
:1006C0008BB183708BB985B18C7F85B98BB18C6010
:1006D0008BB985B185B92C9A2C988BB183708BB965
:1006E00085B18C7F85B95B9A85B185B92C9A2A9A98
:1006F0008AE090E00E9468022A982B9A2D9A2C9802
:100700008BB183708BB985B18C7F85B98BB18BB977
:1007100085B185B92C9A2C988BB183708BB985B132
:100720008C7F85B98BB18BB985B185B92C9A2A9A02
:100730008CE090E00E9468022A982B9A2D9A2C98BF
:100740008BB183708BB985B18C7F85B98BB18BB937
:1007500085B185B92C9A2C988BB183708BB985B1F2
:100760008C7F85B98BB18BB985B185B92C9A2A9AC2
:100770008DE090E00E9468022A982B9A2D9A2C987E
:100780008BB183708BB985B18C7F85B98BB18BB9F7
:1007900085B185B92C9A2C988BB183708BB985B1B2
:1007A0008C7F85B98BB18BB985B185B92C9A2A9A82
:1007B0008FE090E00E9468022A982B9A2D9A2C983C
:1007C0008BB183708BB985B18C7F85B98BB18BB9B7
:1007D00085B185B92C9A2C988BB183708BB985B172
:1007E0008C7F85B98BB18BB985B185B92C9A2A9A42
:1007F0002FEF81EE94E0215080409040E1F700C05F
:10080000000080E390E00E9468022A982B9A2D9ABB
:100810002C988BB183708BB985B18C7F85B98BB1E6
:100820008BB985B185B92C9A2C988BB183708BB913
:1008300085B18C7F85B98BB18BB985B185B92C9A7F
:100840002A9A81E390E00E9468022A982B9A2D9AB6
:100850002C988BB183708BB985B18C7F85B95C9AEC
:1008600085B185B92C9A2C988BB183708BB985B1E1
:100870008C7F85B98BB184618BB985B185B92C9A90
:100880002A9A82E390E00E9468022A982B9A2D9A75
:100890002C988BB183708BB985B18C7F85B95B9AAD
:1008A00085B185B92C9A2C988BB183708BB985B1A1
:1008B0008C7F85B98BB18C608BB985B185B92C9A49
:1008C0002A9A85E390E00E9468022A982B9A2D9A32
:1008D0002C988BB183708BB985B18C7F85B98BB126
:1008E0008BB985B185B92C9A2C988BB183708BB953
:1008F00085B18C7F85B95C9A85B185B92C9A2A9A85
:1009000086E390E00E9468022A982B9A2D9A2C98F0
:100910008BB183708BB985B18C7F85B98BB18C62BB
:100920008BB985B185B92C9A2C988BB183708BB912
:1009300085B18C7F85B98BB18C618BB985B185B957
:100940002C9A2A9A2A982B982D9A2C9A2C988BB10B
:1009500083708BB985B18C7F85B98BB18BB985B12B
:1009600085B92C9A2C988BB183708BB985B18C7F0B
:1009700085B98BB18C6D8BB985B185B92C9A2A9AC2
:100980002A982B9A2D9A2C988BB183708BB985B1AC
:100990008C7F85B98BB18BB985B185B92C9A2C9890
:1009A0008BB183708BB985B18C7F85B98BB18BB9D5
:1009B00085B185B92C9A2A9A88E390E00E94680252
:1009C0002A982B9A2D9A2C988BB183708BB985B16C
:1009D0008C7F85B95C9A85B185B92C9A2C988BB19E
:1009E00083708BB985B18C7F85B98BB184618BB9EC
:1009F00085B185B92C9A2A9A89E390E00E94680211
:100A00002A982B9A2D9A2C988BB183708BB985B12B
:100A10008C7F85B95B9A85B185B92C9A2C988BB15E
:100A200083708BB985B18C7F85B98BB18C608BB9A4
:100A300085B185B92C9A2A9A8CE390E00E946802CD
:100A40002A982B9A2D9A2C988BB183708BB985B1EB
:100A50008C7F85B98BB18BB985B185B92C9A2C98CF
:100A60008BB183708BB985B18C7F85B95C9A85B168
:100A700085B92C9A2A9A8DE390E00E9468022A9800
:100A80002B9A2D9A2C988BB183708BB985B18C7F62
:100A900085B98BB18C628BB985B185B92C9A2C98AC
:100AA0008BB183708BB985B18C7F85B98BB18C612B
:100AB0008BB985B185B92C9A2A9A80E290E00E9480
:100AC00068022A982B9A2D9A2C988BB183708BB937
:100AD00085B18C7F85B98BB18BB985B185B92C9ADD
:100AE0002C988BB183708BB985B18C7F85B98BB114
:100AF0008BB985B185B92C9A2A9A81E290E00E943F
:100B000068022A982B9A2D9A2C988BB183708BB9F6
:100B100085B18C7F85B98BB18BB985B185B92C9A9C
:100B20002C988BB183708BB985B18C7F85B98BB1D3
:100B30008BB985B185B92C9A2A9A80E590E00E94FC
:100B400068022A982B9A2D9A2C988BB183708BB9B6
:100B500085B18C7F85B98BB18BB985B185B92C9A5C
:100B60002C988BB183708BB985B18C7F85B98BB193
:100B70008BB985B185B92C9A2A9A2A982B982D9AE7
:100B80002C9A2C988BB183708BB985B18C7F85B9E9
:100B90008BB18BB985B185B92C9A2C988BB18370A8
:100BA0008BB985B18C7F85B98BB184648BB9289A58
:100BB0002C9A2A9A2A982B9A2D9A2C988BB183706A
:100BC0008BB985B18C7F85B98BB18BB985B185B96E
:100BD0002C9A2C988BB183708BB985B18C7F85B999
:100BE0008BB18C6B8BB985B1836085B92C9A2A9AAD
:100BF00082E590E00E9468022A982B9A2D9A2C9800
:100C00008BB183708BB985B18C7F85B98BB18BB972
:100C100085B185B92C9A2C988BB183708BB985B12D
:100C20008C7F85B98BB18BB985B185B92C9A2A9AFD
:100C300083E590E00E9468022A982B9A2D9A2C98BE
:100C40008BB183708BB985B18C7F85B95A9A85B188
:100C500085B92C9A2C988BB183708BB985B18C7F18
:100C600085B98BB18C6F8BB985B185B92C9A2A9ACD
:100C70002FEF81EE94E0215080409040E1F700C0DA
:100C8000000080E690E00E9468022A982B9A2D9A34
:100C90002C988BB183708BB985B18C7F85B98BB162
:100CA0008C698BB9299A2C9A2C988BB183708BB94B
:100CB00085B18C7F85B98BB18BB985B185B92C9AFB
:100CC0002A9A81E690E00E9468022A982B9A2D9A2F
:100CD0002C988BB183708BB985B18C7F85B98BB122
:100CE0008BB985B185B92C9A2C988BB183708BB94F
:100CF00085B18C7F85B95A9A85B185B92C9A2A9A83
:100D000080E990E00E9468022A982B9A2D9A2C98EC
:100D10008BB183708BB985B18C7F85B98BB18BB961
:100D200085B185B92C9A2C988BB183708BB985B11C
:100D30008C7F85B98BB1886E8BB985B185B92C9ABA
:100D40002A9A85E990E00E9468022A982B9A2D9AA7
:100D50002C988BB183708BB985B18C7F85B95B9AE8
:100D600085B185B92C9A2C988BB183708BB985B1DC
:100D70008C7F85B98BB188678BB985B185B92C9A81
:100D80002A9A80E890E00E9468022A982B9A2D9A6D
:100D90002C988BB183708BB985B18C7F85B98BB161
:100DA0008BB985B185B92C9A2C988BB183708BB98E
:100DB00085B18C7F85B98BB18BB985B185B92C9AFA
:100DC0002A9A81E890E00E9468022A982B9A2D9A2C
:100DD0002C988BB183708BB985B18C7F85B98BB121
:100DE0008BB985B185B92C9A2C988BB183708BB94E
:100DF00085B18C7F85B98BB18BB985B185B92C9ABA
:100E00002A9A82E890E00E9468022A982B9A2D9AEA
:100E10002C988BB183708BB985B18C7F85B98BB1E0
:100E20008BB985B185B92C9A2C988BB183708BB90D
:100E300085B18C7F85B98BB18BB985B185B92C9A79
:100E40002A9A83E890E00E9468022A982B9A2D9AA9
:100E50002C988BB183708BB985B18C7F85B98BB1A0
:100E60008BB985B185B92C9A2C988BB183708BB9CD
:100E700085B18C7F85B98BB18BB985B185B92C9A39
:100E80002A9A2A982B982D9A2C9A2C988BB1837099
:100E90008BB985B18C7F85B98BB18BB985B185B99B
:100EA0002C9A2C988BB183708BB985B18C7F85B9C6
:100EB0005C9A299A2C9A2A9A2A982B9A2D9A2C98DD
:100EC0008BB183708BB985B18C7F85B98BB18BB9B0
:100ED00085B185B92C9A2C988BB183708BB985B16B
:100EE0008C7F85B98BB18BB985B185B92C9A2A9A3B
:100EF00085E890E00E9468022A982B9A2D9A2C98F7
:100F00008BB183708BB985B18C7F85B98BB18BB96F
:100F100085B185B92C9A2C988BB183708BB985B12A
:100F20008C7F85B98BB18BB985B185B92C9A2A9AFA
:100F30002A982B982D9A2C9A2C988BB183708BB968
:100F400085B18C7F85B98BB18BB985B185B92C9A68
:100F50002C988BB183708BB985B18C7F85B98BB19F
:100F60008C6F8BB985B1836085B92C9A2A9A2A989F
:100F70002B9A2D9A2C988BB183708BB985B18C7F6D
:100F800085B98BB18BB985B185B92C9A2C988BB169
:100F900083708BB985B18C7F85B95A9A85B185B933
:100FA0002C9A2A9A2A982B982D9A2C9A2C988BB1A5
:100FB00083708BB985B18C7F85B98BB18BB985B1C5
:100FC00085B92C9A2C988BB183708BB985B18C7FA5
:100FD00085B98BB1806C8BB9299A2C9A2A9A2A9858
:100FE0002B9A2D9A2C988BB183708BB985B18C7FFD
:100FF00085B98BB180658BB985B185B92C9A2C9850
:101000008BB183708BB985B18C7F85B98BB18463CB
:101010008BB985B185B92C9A2A9A8FEF90E00E94FE
:1010200068022A982B9A2D9A2C988BB183708BB9D1
:1010300085B18C7F85B98BB18BB985B185B92C9A77
:101040002C988BB183708BB985B18C7F85B98BB1AE
:101050008BB985B185B92C9A2A9A2FEF81EE94E04D
:10106000215080409040E1F700C000002A982B9862
:101070002D9A2C9A2C988BB183708BB985B18C7F6B
:1010800085B98BB18BB985B185B92C9A2C988BB168
:1010900083708BB985B18C7F85B98BB18C618BB92D
:1010A00085B185B92C9A2A9A2A982B9A2D9A2C9830
:1010B0008BB183708BB985B18C7F85B95A9A85B114
:1010C00085B92C9A2C988BB183708BB985B18C7FA4
:1010D00085B98BB18C6C8BB985B185B92C9A2A9A5C
:1010E0002FEF80E792E0215080409040E1F700C070
:1010F00000002A982B982D9A2C9A2C988BB18370EB
:101100008BB985B18C7F85B98BB18BB985B185B928
:101110002C9A2C988BB183708BB985B18C7F85B953
:101120005E9A85B185B92C9A2A9A2A982B9A2D9A7B
:101130002C988BB183708BB985B18C7F85B98BB1BD
:1011400080658BB985B185B92C9A2C988BB1837049
:101150008BB985B18C7F85B95F9A85B1836085B97C
:101160002C9A2A9A2FEF81EE94E0215080409040F3
:10117000E1F700C0000087E090E00E9468022A9832
:101180002B9A2D9A2C988BB183708BB985B18C7F5B
:1011900085B95A9A85B185B92C9A2C988BB18370F0
:1011A0008BB985B18C7F85B98BB18C6C8BB985B1CE
:1011B00085B92C9A2A9A2A982B982D9A2C9A2C9891
:1011C0008BB183708BB985B18C7F85B98BB18BB9AD
:1011D00085B185B92C9A2C988BB183708BB985B168
:1011E0008C7F85B98BB188688BB985B185B92C9A0C
:1011F0002A9A0E94960208952A982B982D9A2C9A42
:101200002C982BB123702BB925B12C7F25B92BB18C
:101210002BB925B125B92C9A2C982BB123702BB959
:1012200025B12C7F25B92BB12C602BB925B125B95F
:101230002C9A2A9A0197E1F42A982B9A2D9A2C98A5
:101240008BB183708BB985B18C7F85B95E9A289AF2
:101250002C9A2C988BB183708BB985B18C7F85B912
:101260008BB1806E8BB985B185B92C9A2A9A1BC037
:101270002A982B9A2D9A2C988BB183708BB985B1B3
:101280008C7F85B95E9A289A2C9A2C988BB18370A2
:101290008BB985B18C7F85B98BB1806C8BB985B1E9
:1012A00085B92C9A2A9A2A982B982D9A2C9A2C98A0
:1012B0008BB183708BB985B18C7F85B98BB18BB9BC
:1012C00085B185B92C9A2C988BB183708BB985B177
:1012D0008C7F85B98BB188688BB985B185B92C9A1B
:1012E0002A9A08952A982B982D9A2C9A2C982BB1EB
:1012F00023702BB925B12C7F25B92BB12BB925B182
:1013000025B92C9A2C982BB123702BB925B12C7FA1
:1013100025B95F9A25B125B92C9A2A9A2A982B9A31
:101320002D9A2C982BB123702BB925B12C7F25B980
:10133000EBB1292F3327A901440F551F440F551F27
:101340004E2B4BB945B1022E232F000C221F330B1D
:10135000000C221F331F242B25B92C9A2C982BB15B
:1013600023702BB925B12C7F25B94BB199279C014E
:10137000220F331F220F331F242B2BB925B1082E28
:10138000892F000C881F990B000C881F991F822B36
:1013900085B92C9A2A9A2A982B982D9A2C9A2C98AF
:1013A0008BB183708BB985B18C7F85B98BB18BB9CB
:1013B00085B185B92C9A2C988BB183708BB985B186
:1013C0008C7F85B98BB184688BB985B185B92C9A2E
:1013D0002A9A2A982B9A2D9A2C988BB183708BB9C4
:1013E00085B18C7F85B94BB1872F99279C01220F3E
:1013F000331F220F331F242B2BB925B1082E892F21
:10140000000C881F990B000C881F991F822B85B92F
:101410002C9A2C988BB183708BB985B18C7F85B950
:101420002BB17727CB01880F991F880F991F822B2B
:101430008BB985B1062E672F000C661F770B000C49
:10144000661F771F682B65B92C9A2A9A2A982B98C1
:101450002D9A2C9A2C988BB183708BB985B18C7F87
:1014600085B98BB18BB985B185B92C9A2C988BB184
:1014700083708BB985B18C7F85B98BB188688BB946
:1014800085B185B92C9A2A9A0895CF93DF93EA0102
:101490000E9472092A982B9A2D9A2C988BB18370EE
:1014A0008BB985B18C7F85B94BB18D2F99279C0164
:1014B000220F331F220F331F242B2BB925B1082EE7
:1014C000892F000C881F990B000C881F991F822BF5
:1014D00085B92C9A2C988BB183708BB985B18C7F90
:1014E00085B92BB1DD27CE01880F991F880F991F71
:1014F000822B8BB985B10C2ECD2F000CCC1FDD0BB0
:10150000000CCC1FDD1FC82BC5B92C9A2A9ADF917D
:10151000CF9108952F923F924F925F926F927F9258
:101520008F929F92AF92BF92CF92DF92EF92FF92F3
:101530000F931F93CF93DF934C015B011901002799
:101540001127041B150BE801CC0FDD1F2296E12C9F
:10155000F12CA1016501CE0CDF1CB6012401401A5B
:10156000510AC2010E94450AA101B6016401C00EE0
:10157000D11EC6010E94450AA10135016E187F08DF
:10158000B301C6010E94450AA101B301C2010E9434
:10159000450AEC16FD06C4F02FEFE21AF20AC70165
:1015A000880F991F01968C0F9D1F22273327201B20
:1015B000310B2E153F0549F40C171D0754F0790126
:1015C00020E0C22FD22F01C0CE010C171D075CF402
:1015D00001C079010F5F1F4FE801CC0FDD1F21967D
:1015E000C80FD91F01C0EC01101611060CF0B1CFC5
:1015F000DF91CF911F910F91FF90EF90DF90CF90EF
:10160000BF90AF909F908F907F906F905F904F9022
:101610003F902F9008952F923F924F925F926F923A
:101620007F928F929F92AF92BF92CF92DF92EF9272
:10163000FF920F931F93CF93DF9300D000D000D081
:10164000CDB7DEB79E838D837B013A0129011A83D2
:101650000983C901861B970B9A014D815E81241B6A
:10166000350B890122F400271127021B130BED8192
:10167000FE81E615F70520F0AA24AA94BA2C03C02F
:10168000AA24A394B12C6C01992324F4CC24DD2446
:10169000C81AD90ADC82CB82D194C194D108E4144F
:1016A000F50420F088248A94982C03C0882483941D
:1016B000912C18012B813C81221A330A49815A81CD
:1016C000B7018D819E810E94450AC101880F991F33
:1016D0008C159D056CF04D815E814615570599F07E
:1016E000EB81FC812E1A3F0A4A0D5B1D5E834D8300
:1016F000081719071CF3E414F50429F0200E311E15
:10170000E80CF91CDBCF26960FB6F894DEBF0FBEAF
:10171000CDBFDF91CF911F910F91FF90EF90DF90A0
:10172000CF90BF90AF909F908F907F906F905F9081
:101730004F903F902F900895EF92FF920F931F9339
:10174000CF93DF937C01EA0189010E94720980E056
:1017500090E00E94FC08C7018C0F9D1F813F9105FE
:1017600020F0C0EFD0E0CE19DF09209709F441C086
:10177000812F9927282F220F220F082E892F000C46
:10178000881F990B000C881F991F982F1127302F45
:10179000330F330F002E012F000C001F110B000C14
:1017A000001F111F40E050E02A982B9A2D9A2C9888
:1017B0008BB183708BB985B18C7F85B98BB1822B4E
:1017C0008BB985B1892B85B92C9A2C988BB18370F4
:1017D0008BB985B18C7F85B98BB1832B8BB985B1E2
:1017E000802B85B92C9A2A9A4F5F5F4F4C175D0763
:1017F000D9F6DF91CF911F910F91FF90EF9008954F
:10180000EF92FF920F931F93CF93DF937B01EA0137
:1018100089010E94720981E090E00E94FC08C701E2
:101820008C0F9D1F8134914020F0C0E4D1E0CE198F
:10183000DF09209709F441C0812F9927282F220F13
:10184000220F082E892F000C881F990B000C881F6F
:10185000991F982F1127302F330F330F002E012F90
:10186000000C001F110B000C001F111F40E050E086
:101870002A982B9A2D9A2C988BB183708BB985B1AD
:101880008C7F85B98BB1822B8BB985B1892B85B9BA
:101890002C9A2C988BB183708BB985B18C7F85B9CC
:1018A0008BB1832B8BB985B1802B85B92C9A2A9A61
:1018B0004F5F5F4F4C175D07D9F6DF91CF911F91B6
:1018C0000F91FF90EF9008952F923F924F925F9269
:1018D0006F927F928F929F92AF92BF92CF92DF9240
:1018E000EF92FF920F931F93CF93DF935C014B0115
:1018F000290100271127041B150BE801CC0FDD1F60
:101900002296C12CD12C212C312C3601660C771C4F
:101910009201A3017401EC18FD08B701C501801BF9
:10192000910B0E94000C9201A301B701C501800F29
:10193000911F0E94000CCC16DD06B4F08FEFC81A80
:10194000D80A83E0680E711C6C0E7D1E88279927CB
:10195000801B910B8C159D0541F40C171D074CF055
:101960006C01C22DD32D01C03E010C171D075CF484
:1019700001C06C010F5F1F4FE801CC0FDD1F2196E6
:10198000C60DD71D01C0E301101611060CF0BDCF26
:10199000DF91CF911F910F91FF90EF90DF90CF904B
:1019A000BF90AF909F908F907F906F905F904F907F
:1019B0003F902F900895AF92BF92CF92DF92EF9217
:1019C000FF920F931F93CF93DF93EC017B016A018A
:1019D000590198010E949C0BB7016A0D7B1D98016B
:1019E000A601CE010E949C0B9801A501B701CE0172
:1019F0000E94000C9801A501B701CE018C0D9D1D20
:101A00000E94000CDF91CF911F910F91FF90EF90FA
:101A1000DF90CF90BF90AF9008958F929F92AF923A
:101A2000BF92CF92DF92EF92FF920F931F93CF93CB
:101A3000DF9321153105C9F14A01EB015C01690110
:101A4000C60ED71E7B0180913401811107C0980119
:101A5000A401BE01C5010E949C0B20C080913401ED
:101A6000813039F49801A401B701C5010E949C0B93
:101A700015C080913401823039F49801A401B70176
:101A8000C5010E949C0B0AC080913401833031F45F
:101A90009801A401BE01C5010E949C0B219681E022
:101AA000E81AF108CC15DD0571F6DF91CF911F9191
:101AB0000F91FF90EF90DF90CF90BF90AF909F90ED
:101AC0008F9008952F923F924F925F926F927F92E4
:101AD0008F929F92AF92BF92CF92DF92EF92FF923E
:101AE0000F931F93CF93DF93CDB7DEB72F970FB62A
:101AF000F894DEBF0FBECDBFD82E5B017A0129015D
:101B00001D830C83BA01C5010E94720980EE8D0D00
:101B10008F3520F00F2EFFE3DF2EF02D8D2D90E07E
:101B2000880F991F880F991F880F991F9C012057B4
:101B300030403B832A833701170138E03983C501E0
:101B40008E199F099F838E83A886B986F701EA19AB
:101B5000FB09FB87EA87EA81FB81A4902E813F8104
:101B6000220D331D3D872C878E809F80860C971C0D
:101B7000C884D984EC2CFD2C00E010E0B12C1F8728
:101B80000E87C5010E8402C0959587950A94E2F7E9
:101B900080FF3AC08091340181110CC00C811D81FD
:101BA0009201A2016A857B856E0D7F1DC4010E9492
:101BB0000D0D2AC080913401813049F40C811D81C2
:101BC0009201A201B101C7010E940D0D1DC08091BB
:101BD0003401823069F40C811D819201A2016A8571
:101BE0007B856C0D7D1D8C859D850E940D0D0CC027
:101BF00080913401833041F40C811D819201A20156
:101C0000B301C6010E940D0D8E859F8501969F87A9
:101C10008E87E40CF51CC418D508089709F0B1CFDD
:101C2000998191509983EA81FB813196FB83EA8304
:101C300024183508640C751C91118DCF2F960FB6A2
:101C4000F894DEBF0FBECDBFDF91CF911F910F91F2
:101C5000FF90EF90DF90CF90BF90AF909F908F90CC
:101C60007F906F905F904F903F902F9008954F928C
:101C70005F926F927F928F929F92AF92BF92CF921C
:101C8000DF92EF92FF920F931F93CF93DF93EC01BC
:101C90006B015A0149013801892B59F07901EE0C89
:101CA000FF1CEE0CFF1CEE0CFF1C6894442443F850
:101CB00073C0E901CC0FDD1FCC0FDD1FCC0FDD1F82
:101CC00030C083019401A501B6010E94620D80918C
:101CD0003401811107C080EFC816D10410F5CC0E75
:101CE000DD1E1FC080913401813031F4A114B10494
:101CF000C1F0AC1ABD0A15C080913401823031F4B4
:101D0000C114D10471F0CC1ADD0A0BC080913401EA
:101D1000833039F4E0E4AE16E1E0BE0610F4AC0E18
:101D2000BD1EF70109958111CCCF39C0542C830118
:101D30009401A501B60188810E94620D5A94511048
:101D4000F6CF219680913401811107C0F0EFCF16B4
:101D5000D10410F5CE0CDF1C1FC0809134018130FE
:101D600031F4A114B104C1F0AE18BF0815C08091C0
:101D70003401823031F4C114D10471F0CE18DF087F
:101D80000BC080913401833039F480E4A81681E0DF
:101D9000B80610F4AE0CBF1C88818111C7CFDF914B
:101DA000CF911F910F91FF90EF90DF90CF90BF9058
:101DB000AF909F908F907F906F905F904F9008951D
:101DC000CF93DF9300D000D000D0CDB7DEB70E9414
:101DD000161186E00E9449100E94BF020E942F1037
:101DE0000F2EFCEBEF2EF0E1FF2EF02D0FEF1FEF8B
:101DF00021E030E04AE050E060E070E080E091E017
:101E00000E94370E0F2EF2E18F2EF1E09F2EF02D63
:101E10000F2EFBE1AF2EF1E0BF2EF02D0F2EF4E2DE
:101E2000CF2EF1E0DF2EF02D0E942C10811127C063
:101E30000E94271129834B835C836D837E830D81F0
:101E40001E810B30110584F33F9389818F939F92FC
:101E50008F920E94FE108C818F938B818F93BF9203
:101E6000AF920E94FE101F930F93DF92CF920E94B9
:101E7000FE100FB6F894DEBF0FBECDBFD5CF0E94C7
:101E8000BC108C3789F60E94BC1090E0FC013197A1
:101E9000E431F10548F6EC5CFF4F0C9420180E94E9
:101EA0009602C2CF0E94BC10782E0E94BC10F82E61
:101EB0000E94BC10E82E0E94BC10082F10E0102FCA
:101EC00000270E94BC109801282B4E2D50E06F2D4A
:101ED00070E0872D90E00E948A0AA6CF0E94BC1075
:101EE000782E0E94BC10F82E0E94BC10E82E0E9492
:101EF000BC10082F10E0102F00270E94BC10980182
:101F0000282B4E2D50E06F2D70E0872D90E00E9421
:101F1000640C8ACF0E94BC10E82E0E94BC10F82EE0
:101F20000E94BC10782E0E94BC10682E0E94BC102B
:101F3000082F10E0102F00270E94BC10082B262D20
:101F400030E0472D50E06F2D70E08E2D90E00E9424
:101F50000B0B6ACF0E94BC10E82E0E94BC10F82E1A
:101F60000E94BC10782E0E94BC10682E0E94BC10EB
:101F7000082F10E0102F00270E94BC10082B262DE0
:101F800030E0472D50E06F2D70E08E2D90E00E94E4
:101F9000DB0C4ACF0E94BC10F82E0E94BC10E82E29
:101FA0000E94BC10082F10E0102F00270E94BC10C8
:101FB000A801482B6E2D70E08F2D90E00E94450AFD
:101FC00033CF0E94BC10E82E0E94BC10F82E0E9455
:101FD000BC10782E0E94BC10682E0E94BC10082FE6
:101FE00010E0102F00270E94BC10082B262D30E097
:101FF000472D50E06F2D70E08E2D90E00E940D0D6A
:1020000013CF0E94BC10F82E0E94BC10E82E0E9434
:10201000BC10782E0E94BC10082F10E0102F002753
:102020000E94BC10082B272D30E04E2D50E06F2D64
:1020300070E00F2EFCEBEF2EF0E1FF2EF02D80E094
:1020400090E00E94370EF0CEFC01718360835383D1
:1020500042833583248308958091B7010895F894CD
:102060001092B9011092B8011092BA011092B70102
:10207000789408959093C5008093C40082E0809383
:10208000C00088E98093C10086E08093C200789404
:102090000895813029F48FE991E00E943A10089563
:1020A000823029F48FEC90E00E943A10089583303A
:1020B00029F487E690E00E943A100895843029F4CC
:1020C00083E390E00E943A100895853029F481E27C
:1020D00090E00E943A100895863021F480E190E06B
:1020E0000E943A100895E0ECF0E0908195FFFDCF5A
:1020F0008093C60008951F920F920FB60F9211247D
:102100002F933F934F935F936F937F938F939F93FF
:10211000AF93BF93EF93FF93F894E091BA0181E0FE
:102120008E0F8093BA018091C600F0E0E554FE4F17
:1021300080838091BA018091B7018F5F8093B7014E
:102140008091B701813C30F083E10E94731081E0FF
:102150008093B6017894FF91EF91BF91AF919F91D9
:102160008F917F916F915F914F913F912F910F9040
:102170000FBE0F901F901895CF938091B7018823C1
:10218000E1F38091B8019091B9019C012F5F3F4F1D
:102190003093B9012093B801FC01E554FE4FC08192
:1021A0002F3F310529F020F01092B9011092B801AB
:1021B000F8949091B70191509093B70178948091E1
:1021C000B601813049F48091B701803428F481E16F
:1021D0000E9473101092B6018C2FCF910895CF9367
:1021E000DF93EC018881882331F021960E947310DF
:1021F00089918111FBCFDF91CF910895CF93DF9328
:10220000CDB7DEB79E012B5F3F4FF9014191519150
:102210009F0161E870E085E391E00E94C71985E3C2
:1022200091E00E94EF10DF91CF910895EAE7F0E08E
:10223000808187608083ACE7B0E08C9180648C9370
:1022400080818068808380818064808308958F92FC
:102250009F92AF92BF92CF92DF92EF92FF920F9335
:102260001F93CF93DF93CDB7DEB760970FB6F89487
:10227000DEBF0FBECDBF3A984298389840983B9A3F
:10228000439A399A4198AE01435F5F4FBE016F5E3A
:102290007F4F9A010F2EFCE7EF2EF12CF02DEAE78D
:1022A000F0E008E710E0D7018C91807F8C938C914F
:1022B00082608C93808180648083808186FDFDCFE5
:1022C000D8018D919C91D9018D939D939D01A61765
:1022D000B70749F7CD84DE84EF84F8880FEF13E069
:1022E0000E191F093B984398399841983A9A429A97
:1022F000389A40980F2EFCE7AF2EB12CF02DEAE76C
:10230000F0E028E730E0D5018C91807F8C938C91B0
:1023100081608C93808180648083808186FDFDCF85
:10232000D9018D919C91DA018D939D93AD01A617F2
:10233000B70749F74F8558898D859E85841795077E
:1023400031F491E0CE14DF0419F090E001C090E088
:102350002FEF33E07901E41AF50A3B9A4398409A4B
:102360003A984298ECE7F0E08081807F808380811A
:1023700081608083EAE7F0E08081806480838081EF
:1023800086FDFDCFC0907800D0907900ECE7F0E0BA
:102390008081807F8083808182608083EAE7F0E0B3
:1023A000808180648083808186FDFDCF609178008C
:1023B000709179009923B9F1072E000C880B990BC5
:1023C0000E948C134B015C01B601DD0C880B990B4C
:1023D0000E948C139B01AC01C501B4010E94E21262
:1023E00020E030E040E85FE30E9475124B015C01A1
:1023F000B801012E000C880B990B0E948C13A501CB
:1024000094010E94181420E030E046E953E40E9451
:10241000181420E030E040E85AE30E9418140E94AB
:1024200054136B0102C0C12CD12CC701FF0CAA0BA5
:10243000BB0B9C01AD012857310941095109A0ECA2
:10244000BEEF0E94341824E333E040E050E00E94E5
:10245000011849015A01B0E48B0EB1E09B1EA11C8A
:10246000B11CC801110FAA0BBB0B9C01AD012C586C
:10247000310941095109A0E1BFEF0E94341828EF4A
:1024800032E040E050E00E940118CA01B9016051F9
:102490007F4F8F4F9F4F9601A401CE0101960E945E
:1024A000241086E0FE013196DE01179601900D9210
:1024B0008A95E1F72F81388549855A856B857C851A
:1024C00080E090E060960FB6F894DEBF0FBECDBFFF
:1024D000DF91CF911F910F91FF90EF90DF90CF9000
:1024E000BF90AF909F908F9008955058BB27AA2718
:1024F0000E948D120C94DE130E94D01338F00E94BB
:10250000D71320F039F49F3F19F426F40C94CD131F
:102510000EF4E095E7FB0C94C713E92F0E94EF132C
:1025200058F3BA17620773078407950720F079F408
:10253000A6F50C9411140EF4E0950B2EBA2FA02DD5
:102540000B01B90190010C01CA01A0011124FF2760
:10255000591B99F0593F50F4503E68F11A16F0405B
:10256000A22F232F342F4427585FF3CF469537955A
:102570002795A795F0405395C9F77EF41F16BA0B1F
:10258000620B730B840BBAF09150A1F0FF0FBB1FCD
:10259000661F771F881FC2F70EC0BA0F621F731F16
:1025A000841F48F4879577956795B795F7959E3F73
:1025B00008F0B0CF9395880F08F09927EE0F979504
:1025C000879508950E94F6120C94DE130E94D7138B
:1025D00058F00E94D01340F029F45F3F29F00C948A
:1025E000C71351110C9412140C94CD130E94EF13C5
:1025F00068F39923B1F3552391F3951B550BBB2732
:10260000AA2762177307840738F09F5F5F4F220F76
:10261000331F441FAA1FA9F335D00E2E3AF0E0E86D
:1026200032D091505040E695001CCAF72BD0FE2FB7
:1026300029D0660F771F881FBB1F2617370748074B
:10264000AB07B0E809F0BB0B802DBF01FF27935803
:102650005F4F3AF09E3F510578F00C94C7130C94ED
:1026600012145F3FE4F3983ED4F38695779567950F
:10267000B795F7959F5FC9F7880F911D9695879538
:1026800097F90895E1E0660F771F881FBB1F621757
:1026900073078407BA0720F0621B730B840BBA0B15
:1026A000EE1F88F7E09508950E945B136894B111BE
:1026B0000C94121408950E94F71388F09F5798F015
:1026C000B92F9927B751B0F0E1F0660F771F881F37
:1026D000991F1AF0BA95C9F714C0B13091F00E9451
:1026E0001114B1E008950C941114672F782F8827E6
:1026F000B85F39F0B93FCCF3869577956795B39578
:10270000D9F73EF490958095709561957F4F8F4FE6
:102710009F4F0895E89409C097FB3EF490958095EB
:10272000709561957F4F8F4F9F4F9923A9F0F92F97
:1027300096E9BB279395F695879577956795B79515
:10274000F111F8CFFAF4BB0F11F460FF1BC06F5FFB
:102750007F4F8F4F9F4F16C0882311F096E911C00D
:10276000772321F09EE8872F762F05C0662371F02E
:1027700096E8862F70E060E02AF09A95660F771F42
:10278000881FDAF7880F9695879597F9089597F936
:102790009F6780E870E060E008959FEF80EC089507
:1027A00000240A9416161706180609060895002430
:1027B0000A9412161306140605060895092E0394AA
:1027C000000C11F4882352F0BB0F40F4BF2B11F41E
:1027D00060FF04C06F5F7F4F8F4F9F4F089557FD7D
:1027E0009058440F551F59F05F3F71F04795880F7F
:1027F00097FB991F61F09F3F79F087950895121616
:1028000013061406551FF2CF4695F1DF08C01616C1
:1028100017061806991FF1CF869571056105089472
:102820000895E894BB2766277727CB0197F9089589
:102830000E942B140C94DE130E94D01338F00E94D7
:10284000D71320F0952311F00C94C7130C94CD13DB
:1028500011240C9412140E94EF1370F3959FC1F38E
:10286000950F50E0551F629FF001729FBB27F00D3E
:10287000B11D639FAA27F00DB11DAA1F649F662793
:10288000B00DA11D661F829F2227B00DA11D621FE2
:10289000739FB00DA11D621F839FA00D611D221F9C
:1028A000749F3327A00D611D231F849F600D211D80
:1028B000822F762F6A2F11249F5750409AF0F1F003
:1028C00088234AF0EE0FFF1FBB1F661F771F881F6C
:1028D00091505040A9F79E3F510580F00C94C713CA
:1028E0000C9412145F3FE4F3983ED4F386957795E9
:1028F0006795B795F795E7959F5FC1F7FE2B880F12
:10290000911D9695879597F90895A3E1B0E0EBE8BE
:10291000F4E10C9439186C014B012A01FC01178277
:102920001682838181FF43C3AE014F5F5F4F3A013F
:10293000F6019381F40193FD859193FF81914F01FD
:10294000882309F430C3853239F493FD859193FFD0
:1029500081914F01853239F4B60190E00E948F19C0
:1029600052012501E5CF10E0F12C20E02032A0F447
:102970008B3269F030F4803259F0833269F420618F
:102980002CC08D3239F0803339F4216026C02260AA
:10299000246023C0286021C027FD27C030ED380FF8
:1029A0003A3078F426FF06C0FAE01F9F300D11245C
:1029B000132F13C04AE0F49E300D1124F32E206231
:1029C0000CC08E3221F426FDEEC2206406C08C3687
:1029D00011F4206802C0883641F4F40193FD85911A
:1029E00093FF81914F018111C1CF9BEB980F9330E1
:1029F00018F42061805E06C09BE9980F933008F0C0
:102A000071C12F7E26FF16E02F73322E853619F402
:102A10002064322E08C0863621F4F22FF0683F2E53
:102A200002C01111115037FE07C01C3350F4EE24C0
:102A3000E394E10E27E00BC0183038F027E017E0F0
:102A400005C027E04CE3E42E02C0212FE12C520107
:102A500044E0A40EB11CF2016081718182819381F6
:102A60000E2DA3010E94A1182C01098100FF02C0B4
:102A700003FF07C031FC08C032FE09C030E2232E3C
:102A800007C02DE2222E04C09BE2292E01C0212C7A
:102A9000802F8C7019F0211068C2A8C237FE0FC0B9
:102AA000E40C04FF04C08A81813309F4EA941E1403
:102AB00074F5F8E0FE1578F588E0E82E2CC036FCB9
:102AC0002AC0812F90E0841595059CF02CEF4216CA
:102AD0002FEF520674F0432D4068342E0AC0E2E016
:102AE000F0E0EC0FFD1FE10FF11D8081803319F440
:102AF00011501111F4CF37FE0EC0EE24E394E10E15
:102B0000812F90E0481659062CF4141904C0EE24C5
:102B1000E39401C010E037FE06C01414150434F429
:102B2000C201019605C085E090E002C081E090E01E
:102B300021100196112331F0212F30E02F5F3F4FFC
:102B4000820F931F2F2D30E08217930714F4F81A89
:102B500001C0F12C832D897049F4FF2039F0B601B2
:102B600080E290E00E948F19FA94F7CF222029F09A
:102B7000B601822D90E00E948F1933FC09C0FF201E
:102B800039F0B60180E390E00E948F19FA94F7CFF4
:102B900037FE5AC0942D852D57FE02C090E080E08C
:102BA000292E382E20E030E0A2014E1951095D8710
:102BB0004C87A201421953095F874E87612F70E04D
:102BC00044275527461B570B598B488B5FEF25161B
:102BD000350649F4B6018EE290E02A8B3B8B0E94C9
:102BE0008F193B892A89421453046CF04C855D850A
:102BF0004215530544F4EE85FF85E20FF31FE60D01
:102C0000F71D818101C080E351E0251A31082F5F53
:102C10003F4F48895989241635064CF0B60190E09B
:102C20002A8B3B8B0E948F192A893B89CFCF241492
:102C3000350439F49A81963318F4953311F404FF6E
:102C400081E3B60190E04BC08A81813309F00F7EA9
:102C5000B60190E00E948F19111105C034FC18C014
:102C600085E690E017C0B6018EE290E00E948F19D1
:102C700082E0EE24E394E80EF301E80FF11D808179
:102C8000B60190E00E948F1911508E2D91F7E6CF7A
:102C900085E490E0B6010E948F1957FC05C04114ED
:102CA000510439F404FF05C05194419451088DE258
:102CB00001C08BE2B60190E00E948F1980E39AE098
:102CC000491651042CF08F5F5AE0451A5108F7CF8E
:102CD000B60190E00E948F19B601C201C0960E9411
:102CE0008F1957C1833631F0833779F0833509F076
:102CF00058C021C05201E2E0AE0EB11CF201808149
:102D0000898301E010E0230114C05201F2E0AF0E0C
:102D1000B11CF2014080518026FF03C0612F70E09A
:102D200002C06FEF7FEFC2012A8B0E9484198C01D1
:102D30002A892F7715C05201F2E0AF0EB11CF201C3
:102D40004080518026FF03C0612F70E002C06FEF0A
:102D50007FEFC2012A8B0E9479198C012A89206891
:102D6000322E23FD1AC08F2D90E008171907A8F402
:102D7000B60180E290E00E948F19FA94F4CFF2013C
:102D800037FC859137FE81912F01B60190E00E94BA
:102D90008F19F110FA94015011090115110579F7F5
:102DA000F8C0843611F0893659F5520127FF09C061
:102DB000F4E0AF0EB11CF2016081718182819381D8
:102DC0000AC0F2E0AF0EB11CF20160817181072EE2
:102DD000000C880B990B2F76322E97FF09C0909527
:102DE0008095709561957F4F8F4F9F4F2068322E51
:102DF0002AE030E0A3010E94F319E82EE6183FC054
:102E0000022F853721F40F7E2AE030E01DC0097FB4
:102E10008F3691F018F4883559F0C5C0803719F015
:102E2000883711F0C0C0006104FF09C0046007C00A
:102E300024FF08C0066006C028E030E005C020E19D
:102E400030E002C020E132E0520107FF09C0F4E0A7
:102E5000AF0EB11CF201608171818281938108C043
:102E6000F2E0AF0EB11CF2016081718180E090E070
:102E7000A3010E94F319E82EE6180F77302E36FED4
:102E80000BC0332D3E7FE11650F434FE0AC032FCF5
:102E900008C0332D3E7E05C00E2D332D03C00E2DF0
:102EA00001C0012F34FF0CC0FE01EE0DF11D808129
:102EB000803311F4397E08C032FF05C00E5F04C0B4
:102EC000832F867809F00F5F33FD13C030FF06C0F3
:102ED0001E2D0F1518F41F0D101B0F2D0F1568F464
:102EE000B60180E290E03B8B0E948F190F5F3B8917
:102EF000F5CF0F1510F4F01A01C0F12C34FF12C0F9
:102F0000B60180E390E03B8B0E948F193B8932FF32
:102F100017C031FD03C088E790E002C088E590E06B
:102F2000B6010CC0832F867859F031FF02C08BE2C6
:102F300001C080E237FD8DE2B60190E00E948F195A
:102F4000E11638F4B60180E390E00E948F19115029
:102F5000F7CFEA94F301EE0DF11D8081B60190E008
:102F60000E948F19E110F5CF14C0F4E0FF1558F559
:102F700084E0F81A33FE1EC0211026C003FF2AC0C9
:102F800000E913E0F32DF0713F2EF80184918111D7
:102F900024C0FF2009F4E5CCB60180E290E00E9455
:102FA0008F19FA94F6CFF6018681978126C08FEFAC
:102FB0009FEF23C0B60180E290E00E948F19FA943F
:102FC000F110F8CFD9CFF12CB601822D90E00E94FC
:102FD0008F19D4CF04E913E0D5CF31108052B60158
:102FE00090E00E948F190F5F1F4FCFCF23E02F1566
:102FF00010F483E0BECFF12CC1CF6396E2E10C94D4
:103000005518052E97FB1EF400940E94181857FDC2
:1030100007D00E94701807FC03D04EF40C941818C7
:1030200050954095309521953F4F4F4F5F4F0895F4
:1030300090958095709561957F4F8F4F9F4F089524
:10304000EE0FFF1F0590F491E02D09940E94921855
:10305000A59F900DB49F900DA49F800D911D1124EC
:103060000895B7FF0C9426180E942618821B930B14
:1030700008952F923F924F925F926F927F928F921C
:103080009F92AF92BF92CF92DF92EF92FF920F93F7
:103090001F93CF93DF93CDB7DEB7CA1BDB0B0FB601
:1030A000F894DEBF0FBECDBF09942A8839884888BE
:1030B0005F846E847D848C849B84AA84B984C88454
:1030C000DF80EE80FD800C811B81AA81B981CE0F4B
:1030D000D11D0FB6F894DEBF0FBECDBFED01089530
:1030E000A1E21A2EAA1BBB1BFD010DC0AA1FBB1F0C
:1030F000EE1FFF1FA217B307E407F50720F0A21B7E
:10310000B30BE40BF50B661F771F881F991F1A94EA
:1031100069F760957095809590959B01AC01BD0114
:10312000CF010895A29FB001B39FC001A39F700D6E
:10313000811D1124911DB29F700D811D1124911DBF
:103140000895283008F027E03327DA01990F311D60
:1031500087FD916000966105710539F432602E5F3C
:103160003D9330E32A95E1F708959F3F30F0803892
:103170007105610509F03C5F3C5F3D93913008F0BB
:103180008068911DDF93CF931F930F93FF92EF926F
:10319000192F987F9695E92F96959695E90FFF2719
:1031A000EE50FC4F99273327EE24FF24A701E701B7
:1031B00005900894079428F4360FE71EF81E491F5F
:1031C000511D660F771F881F991F0694A1F7059060
:1031D000079428F4E70EF81E491F561FC11D770FEC
:1031E000881F991F661F0694A1F70590079428F47D
:1031F000F80E491F561FC71FD11D880F991F661F44
:10320000771F0694A1F70590079420F4490F561FE5
:10321000C71FD81F990F661F771F881F0694A9F72D
:1032200084911095177041F0D695C795579547959D
:10323000F794E7941A95C1F7E8E9F3E068941590DC
:10324000159135916591959105907FE27395E118FF
:10325000F10A430B560BC90BD009C0F7E10CF11E64
:10326000431F561FC91FD01D7EF4703311F48A9579
:10327000E6CFE894015030F0080F0AF40027021757
:1032800008F4202F2395022F7A3328F079E37D93D9
:103290002A95E9F710C07D932A9589F606949795AB
:1032A0006795379517951794E118F10A430B560B5C
:1032B000C90BD00998F023957E9173957A3308F065
:1032C00070E37C932013B8F77E9170617D9330F0AA
:1032D000839571E37D9370E32A95E1F71124EF90D4
:1032E000FF900F911F91CF91DF91992787FD9095C6
:1032F0000895FC010590615070400110D8F7809549
:1033000090958E0F9F1F0895FC01615070400190B1
:103310000110D8F7809590958E0F9F1F08950F93F9
:103320001F93CF93DF93FB01238121FD03C08FEF18
:103330009FEF28C022FF16C0468157812481358126
:103340004217530744F4A081B1819D012F5F3F4F85
:10335000318320838C93268137812F5F3F4F3783C2
:10336000268310C0EB01092F182F0084F185E02D72
:103370000995892BE1F68E819F8101969F838E832B
:10338000812F902FDF91CF911F910F910895AEE083
:10339000B0E0EDECF9E10C9447188C01CA0146E06D
:1033A0004C831A83098377FF02C060E070E8FB0159
:1033B0003197FE83ED83A901BC01CE0101960E94E5
:1033C00085144D815E8157FD0AC02F8138854217D3
:1033D00053070CF49A01F801E20FF31F10822E96A6
:1033E000E4E00C946318FA01AA27283051F1203147
:1033F00081F1E8946F936E7F6E5F7F4F8F4F9F4F89
:10340000AF4FB1E03ED0B4E03CD0670F781F891FCA
:103410009A1FA11D680F791F8A1F911DA11D6A0F98
:10342000711D811D911DA11D20D009F468943F914B
:103430002AE0269F11243019305D3193DEF6CF014A
:103440000895462F4770405D4193B3E00FD0C9F710
:10345000F6CF462F4F70405D4A3318F0495D31FD7D
:103460004052419302D0A9F7EACFB4E0A6959795D0
:10347000879577956795BA95C9F7009761057105A6
:1034800008959B01AC010A2E0694579547953795F0
:103490002795BA95C9F7620F731F841F951FA01D4A
:0634A0000895F894FFCF2F
:1034A600526561647920466F7220436F6D6D616E5F
:1034B600640058203D2025640D0A0059203D202532
:1034C600640D0A005072657373757265203D202580
:0434D600640D0A0077
:00000001FF
